{"abi":[{"type":"constructor","inputs":[],"stateMutability":"nonpayable"},{"type":"function","name":"approve","inputs":[{"name":"to","type":"address","internalType":"address"},{"name":"tokenId","type":"uint256","internalType":"uint256"}],"outputs":[],"stateMutability":"nonpayable"},{"type":"function","name":"balanceOf","inputs":[{"name":"owner","type":"address","internalType":"address"}],"outputs":[{"name":"","type":"uint256","internalType":"uint256"}],"stateMutability":"view"},{"type":"function","name":"getApproved","inputs":[{"name":"tokenId","type":"uint256","internalType":"uint256"}],"outputs":[{"name":"","type":"address","internalType":"address"}],"stateMutability":"view"},{"type":"function","name":"isApprovedForAll","inputs":[{"name":"owner","type":"address","internalType":"address"},{"name":"operator","type":"address","internalType":"address"}],"outputs":[{"name":"","type":"bool","internalType":"bool"}],"stateMutability":"view"},{"type":"function","name":"mintTo","inputs":[{"name":"to","type":"address","internalType":"address"},{"name":"quantity","type":"uint256","internalType":"uint256"}],"outputs":[],"stateMutability":"nonpayable"},{"type":"function","name":"name","inputs":[],"outputs":[{"name":"","type":"string","internalType":"string"}],"stateMutability":"view"},{"type":"function","name":"nextTokenId","inputs":[],"outputs":[{"name":"","type":"uint256","internalType":"uint256"}],"stateMutability":"view"},{"type":"function","name":"owner","inputs":[],"outputs":[{"name":"","type":"address","internalType":"address"}],"stateMutability":"view"},{"type":"function","name":"ownerOf","inputs":[{"name":"tokenId","type":"uint256","internalType":"uint256"}],"outputs":[{"name":"","type":"address","internalType":"address"}],"stateMutability":"view"},{"type":"function","name":"renounceOwnership","inputs":[],"outputs":[],"stateMutability":"nonpayable"},{"type":"function","name":"safeTransferFrom","inputs":[{"name":"from","type":"address","internalType":"address"},{"name":"to","type":"address","internalType":"address"},{"name":"tokenId","type":"uint256","internalType":"uint256"}],"outputs":[],"stateMutability":"nonpayable"},{"type":"function","name":"safeTransferFrom","inputs":[{"name":"from","type":"address","internalType":"address"},{"name":"to","type":"address","internalType":"address"},{"name":"tokenId","type":"uint256","internalType":"uint256"},{"name":"data","type":"bytes","internalType":"bytes"}],"outputs":[],"stateMutability":"nonpayable"},{"type":"function","name":"setApprovalForAll","inputs":[{"name":"operator","type":"address","internalType":"address"},{"name":"approved","type":"bool","internalType":"bool"}],"outputs":[],"stateMutability":"nonpayable"},{"type":"function","name":"setShop","inputs":[{"name":"newShop","type":"address","internalType":"address"}],"outputs":[],"stateMutability":"nonpayable"},{"type":"function","name":"shop","inputs":[],"outputs":[{"name":"","type":"address","internalType":"address"}],"stateMutability":"view"},{"type":"function","name":"supportsInterface","inputs":[{"name":"interfaceId","type":"bytes4","internalType":"bytes4"}],"outputs":[{"name":"","type":"bool","internalType":"bool"}],"stateMutability":"view"},{"type":"function","name":"symbol","inputs":[],"outputs":[{"name":"","type":"string","internalType":"string"}],"stateMutability":"view"},{"type":"function","name":"tokenURI","inputs":[{"name":"tokenId","type":"uint256","internalType":"uint256"}],"outputs":[{"name":"","type":"string","internalType":"string"}],"stateMutability":"view"},{"type":"function","name":"transferFrom","inputs":[{"name":"from","type":"address","internalType":"address"},{"name":"to","type":"address","internalType":"address"},{"name":"tokenId","type":"uint256","internalType":"uint256"}],"outputs":[],"stateMutability":"nonpayable"},{"type":"function","name":"transferOwnership","inputs":[{"name":"newOwner","type":"address","internalType":"address"}],"outputs":[],"stateMutability":"nonpayable"},{"type":"event","name":"Approval","inputs":[{"name":"owner","type":"address","indexed":true,"internalType":"address"},{"name":"approved","type":"address","indexed":true,"internalType":"address"},{"name":"tokenId","type":"uint256","indexed":true,"internalType":"uint256"}],"anonymous":false},{"type":"event","name":"ApprovalForAll","inputs":[{"name":"owner","type":"address","indexed":true,"internalType":"address"},{"name":"operator","type":"address","indexed":true,"internalType":"address"},{"name":"approved","type":"bool","indexed":false,"internalType":"bool"}],"anonymous":false},{"type":"event","name":"OwnershipTransferred","inputs":[{"name":"previousOwner","type":"address","indexed":true,"internalType":"address"},{"name":"newOwner","type":"address","indexed":true,"internalType":"address"}],"anonymous":false},{"type":"event","name":"Transfer","inputs":[{"name":"from","type":"address","indexed":true,"internalType":"address"},{"name":"to","type":"address","indexed":true,"internalType":"address"},{"name":"tokenId","type":"uint256","indexed":true,"internalType":"uint256"}],"anonymous":false},{"type":"error","name":"ERC721IncorrectOwner","inputs":[{"name":"sender","type":"address","internalType":"address"},{"name":"tokenId","type":"uint256","internalType":"uint256"},{"name":"owner","type":"address","internalType":"address"}]},{"type":"error","name":"ERC721InsufficientApproval","inputs":[{"name":"operator","type":"address","internalType":"address"},{"name":"tokenId","type":"uint256","internalType":"uint256"}]},{"type":"error","name":"ERC721InvalidApprover","inputs":[{"name":"approver","type":"address","internalType":"address"}]},{"type":"error","name":"ERC721InvalidOperator","inputs":[{"name":"operator","type":"address","internalType":"address"}]},{"type":"error","name":"ERC721InvalidOwner","inputs":[{"name":"owner","type":"address","internalType":"address"}]},{"type":"error","name":"ERC721InvalidReceiver","inputs":[{"name":"receiver","type":"address","internalType":"address"}]},{"type":"error","name":"ERC721InvalidSender","inputs":[{"name":"sender","type":"address","internalType":"address"}]},{"type":"error","name":"ERC721NonexistentToken","inputs":[{"name":"tokenId","type":"uint256","internalType":"uint256"}]},{"type":"error","name":"NotShop","inputs":[]},{"type":"error","name":"OwnableInvalidOwner","inputs":[{"name":"owner","type":"address","internalType":"address"}]},{"type":"error","name":"OwnableUnauthorizedAccount","inputs":[{"name":"account","type":"address","internalType":"address"}]}],"bytecode":{"object":"0x608060405234801561000f575f5ffd5b50336040518060400160405280600a81526020017f4772656e647943617264000000000000000000000000000000000000000000008152506040518060400160405280600a81526020017f4752454e44594341524400000000000000000000000000000000000000000000815250815f908161008b9190610423565b50806001908161009b9190610423565b5050505f73ffffffffffffffffffffffffffffffffffffffff168173ffffffffffffffffffffffffffffffffffffffff160361010e575f6040517f1e4fbdf70000000000000000000000000000000000000000000000000000000081526004016101059190610531565b60405180910390fd5b61011d8161012360201b60201c565b5061054a565b5f60065f9054906101000a900473ffffffffffffffffffffffffffffffffffffffff1690508160065f6101000a81548173ffffffffffffffffffffffffffffffffffffffff021916908373ffffffffffffffffffffffffffffffffffffffff1602179055508173ffffffffffffffffffffffffffffffffffffffff168173ffffffffffffffffffffffffffffffffffffffff167f8be0079c531659141344cd1fd0a4f28419497f9722a3daafe3b4186f6b6457e060405160405180910390a35050565b5f81519050919050565b7f4e487b71000000000000000000000000000000000000000000000000000000005f52604160045260245ffd5b7f4e487b71000000000000000000000000000000000000000000000000000000005f52602260045260245ffd5b5f600282049050600182168061026157607f821691505b6020821081036102745761027361021d565b5b50919050565b5f819050815f5260205f209050919050565b5f6020601f8301049050919050565b5f82821b905092915050565b5f600883026102d67fffffffffffffffffffffffffffffffffffffffffffffffffffffffffffffffff8261029b565b6102e0868361029b565b95508019841693508086168417925050509392505050565b5f819050919050565b5f819050919050565b5f61032461031f61031a846102f8565b610301565b6102f8565b9050919050565b5f819050919050565b61033d8361030a565b6103516103498261032b565b8484546102a7565b825550505050565b5f5f905090565b610368610359565b610373818484610334565b505050565b5b818110156103965761038b5f82610360565b600181019050610379565b5050565b601f8211156103db576103ac8161027a565b6103b58461028c565b810160208510156103c4578190505b6103d86103d08561028c565b830182610378565b50505b505050565b5f82821c905092915050565b5f6103fb5f19846008026103e0565b1980831691505092915050565b5f61041383836103ec565b9150826002028217905092915050565b61042c826101e6565b67ffffffffffffffff811115610445576104446101f0565b5b61044f825461024a565b61045a82828561039a565b5f60209050601f83116001811461048b575f8415610479578287015190505b6104838582610408565b8655506104ea565b601f1984166104998661027a565b5f5b828110156104c05784890151825560018201915060208501945060208101905061049b565b868310156104dd57848901516104d9601f8916826103ec565b8355505b6001600288020188555050505b505050505050565b5f73ffffffffffffffffffffffffffffffffffffffff82169050919050565b5f61051b826104f2565b9050919050565b61052b81610511565b82525050565b5f6020820190506105445f830184610522565b92915050565b612189806105575f395ff3fe608060405234801561000f575f5ffd5b506004361061012a575f3560e01c8063715018a6116100ab578063b88d4fde1161006f578063b88d4fde1461031a578063c87b56dd14610336578063ce965f6a14610366578063e985e9c514610382578063f2fde38b146103b25761012a565b8063715018a61461029a57806375794a3c146102a45780638da5cb5b146102c257806395d89b41146102e0578063a22cb465146102fe5761012a565b806323b872dd116100f257806323b872dd146101e657806342842e0e14610202578063449a52f81461021e5780636352211e1461023a57806370a082311461026a5761012a565b806301ffc9a71461012e57806306fdde031461015e578063081812fc1461017c5780630881fa0d146101ac578063095ea7b3146101ca575b5f5ffd5b610148600480360381019061014391906119c0565b6103ce565b6040516101559190611a05565b60405180910390f35b6101666104af565b6040516101739190611a8e565b60405180910390f35b61019660048036038101906101919190611ae1565b61053e565b6040516101a39190611b4b565b60405180910390f35b6101b4610559565b6040516101c19190611b4b565b60405180910390f35b6101e460048036038101906101df9190611b8e565b61057e565b005b61020060048036038101906101fb9190611bcc565b610594565b005b61021c60048036038101906102179190611bcc565b610693565b005b61023860048036038101906102339190611b8e565b6106b2565b005b610254600480360381019061024f9190611ae1565b61077a565b6040516102619190611b4b565b60405180910390f35b610284600480360381019061027f9190611c1c565b61078b565b6040516102919190611c56565b60405180910390f35b6102a2610841565b005b6102ac610854565b6040516102b99190611c56565b60405180910390f35b6102ca61085a565b6040516102d79190611b4b565b60405180910390f35b6102e8610882565b6040516102f59190611a8e565b60405180910390f35b61031860048036038101906103139190611c99565b610912565b005b610334600480360381019061032f9190611e03565b610928565b005b610350600480360381019061034b9190611ae1565b61094d565b60405161035d9190611a8e565b60405180910390f35b610380600480360381019061037b9190611c1c565b6109b3565b005b61039c60048036038101906103979190611e83565b6109fe565b6040516103a99190611a05565b60405180910390f35b6103cc60048036038101906103c79190611c1c565b610a8c565b005b5f7f80ac58cd000000000000000000000000000000000000000000000000000000007bffffffffffffffffffffffffffffffffffffffffffffffffffffffff1916827bffffffffffffffffffffffffffffffffffffffffffffffffffffffff1916148061049857507f5b5e139f000000000000000000000000000000000000000000000000000000007bffffffffffffffffffffffffffffffffffffffffffffffffffffffff1916827bffffffffffffffffffffffffffffffffffffffffffffffffffffffff1916145b806104a857506104a782610b10565b5b9050919050565b60605f80546104bd90611eee565b80601f01602080910402602001604051908101604052809291908181526020018280546104e990611eee565b80156105345780601f1061050b57610100808354040283529160200191610534565b820191905f5260205f20905b81548152906001019060200180831161051757829003601f168201915b5050505050905090565b5f61054882610b79565b5061055282610bff565b9050919050565b60075f9054906101000a900473ffffffffffffffffffffffffffffffffffffffff1681565b610590828261058b610c38565b610c3f565b5050565b5f73ffffffffffffffffffffffffffffffffffffffff168273ffffffffffffffffffffffffffffffffffffffff1603610604575f6040517f64a0ae920000000000000000000000000000000000000000000000000000000081526004016105fb9190611b4b565b60405180910390fd5b5f6106178383610612610c38565b610c51565b90508373ffffffffffffffffffffffffffffffffffffffff168173ffffffffffffffffffffffffffffffffffffffff161461068d578382826040517f64283d7b00000000000000000000000000000000000000000000000000000000815260040161068493929190611f1e565b60405180910390fd5b50505050565b6106ad83838360405180602001604052805f815250610928565b505050565b60075f9054906101000a900473ffffffffffffffffffffffffffffffffffffffff1673ffffffffffffffffffffffffffffffffffffffff163373ffffffffffffffffffffffffffffffffffffffff1614610738576040517f3b2edad200000000000000000000000000000000000000000000000000000000815260040160405180910390fd5b5f5f90505b818110156107755761075183600854610e5c565b60085f81548092919061076390611f80565b9190505550808060010191505061073d565b505050565b5f61078482610b79565b9050919050565b5f5f73ffffffffffffffffffffffffffffffffffffffff168273ffffffffffffffffffffffffffffffffffffffff16036107fc575f6040517f89c62b640000000000000000000000000000000000000000000000000000000081526004016107f39190611b4b565b60405180910390fd5b60035f8373ffffffffffffffffffffffffffffffffffffffff1673ffffffffffffffffffffffffffffffffffffffff1681526020019081526020015f20549050919050565b610849610f4f565b6108525f610fd6565b565b60085481565b5f60065f9054906101000a900473ffffffffffffffffffffffffffffffffffffffff16905090565b60606001805461089190611eee565b80601f01602080910402602001604051908101604052809291908181526020018280546108bd90611eee565b80156109085780601f106108df57610100808354040283529160200191610908565b820191905f5260205f20905b8154815290600101906020018083116108eb57829003601f168201915b5050505050905090565b61092461091d610c38565b8383611099565b5050565b610933848484610594565b61094761093e610c38565b85858585611202565b50505050565b606061095882610b79565b505f6109626113ae565b90505f8151116109805760405180602001604052805f8152506109ab565b8061098a846113c4565b60405160200161099b929190612001565b6040516020818303038152906040525b915050919050565b6109bb610f4f565b8060075f6101000a81548173ffffffffffffffffffffffffffffffffffffffff021916908373ffffffffffffffffffffffffffffffffffffffff16021790555050565b5f60055f8473ffffffffffffffffffffffffffffffffffffffff1673ffffffffffffffffffffffffffffffffffffffff1681526020019081526020015f205f8373ffffffffffffffffffffffffffffffffffffffff1673ffffffffffffffffffffffffffffffffffffffff1681526020019081526020015f205f9054906101000a900460ff16905092915050565b610a94610f4f565b5f73ffffffffffffffffffffffffffffffffffffffff168173ffffffffffffffffffffffffffffffffffffffff1603610b04575f6040517f1e4fbdf7000000000000000000000000000000000000000000000000000000008152600401610afb9190611b4b565b60405180910390fd5b610b0d81610fd6565b50565b5f7f01ffc9a7000000000000000000000000000000000000000000000000000000007bffffffffffffffffffffffffffffffffffffffffffffffffffffffff1916827bffffffffffffffffffffffffffffffffffffffffffffffffffffffff1916149050919050565b5f5f610b848361148e565b90505f73ffffffffffffffffffffffffffffffffffffffff168173ffffffffffffffffffffffffffffffffffffffff1603610bf657826040517f7e273289000000000000000000000000000000000000000000000000000000008152600401610bed9190611c56565b60405180910390fd5b80915050919050565b5f60045f8381526020019081526020015f205f9054906101000a900473ffffffffffffffffffffffffffffffffffffffff169050919050565b5f33905090565b610c4c83838360016114c7565b505050565b5f5f610c5c8461148e565b90505f73ffffffffffffffffffffffffffffffffffffffff168373ffffffffffffffffffffffffffffffffffffffff1614610c9d57610c9c818486611686565b5b5f73ffffffffffffffffffffffffffffffffffffffff168173ffffffffffffffffffffffffffffffffffffffff1614610d2857610cdc5f855f5f6114c7565b600160035f8373ffffffffffffffffffffffffffffffffffffffff1673ffffffffffffffffffffffffffffffffffffffff1681526020019081526020015f205f82825403925050819055505b5f73ffffffffffffffffffffffffffffffffffffffff168573ffffffffffffffffffffffffffffffffffffffff1614610da757600160035f8773ffffffffffffffffffffffffffffffffffffffff1673ffffffffffffffffffffffffffffffffffffffff1681526020019081526020015f205f82825401925050819055505b8460025f8681526020019081526020015f205f6101000a81548173ffffffffffffffffffffffffffffffffffffffff021916908373ffffffffffffffffffffffffffffffffffffffff160217905550838573ffffffffffffffffffffffffffffffffffffffff168273ffffffffffffffffffffffffffffffffffffffff167fddf252ad1be2c89b69c2b068fc378daa952ba7f163c4a11628f55a4df523b3ef60405160405180910390a4809150509392505050565b5f73ffffffffffffffffffffffffffffffffffffffff168273ffffffffffffffffffffffffffffffffffffffff1603610ecc575f6040517f64a0ae92000000000000000000000000000000000000000000000000000000008152600401610ec39190611b4b565b60405180910390fd5b5f610ed883835f610c51565b90505f73ffffffffffffffffffffffffffffffffffffffff168173ffffffffffffffffffffffffffffffffffffffff1614610f4a575f6040517f73c6ac6e000000000000000000000000000000000000000000000000000000008152600401610f419190611b4b565b60405180910390fd5b505050565b610f57610c38565b73ffffffffffffffffffffffffffffffffffffffff16610f7561085a565b73ffffffffffffffffffffffffffffffffffffffff1614610fd457610f98610c38565b6040517f118cdaa7000000000000000000000000000000000000000000000000000000008152600401610fcb9190611b4b565b60405180910390fd5b565b5f60065f9054906101000a900473ffffffffffffffffffffffffffffffffffffffff1690508160065f6101000a81548173ffffffffffffffffffffffffffffffffffffffff021916908373ffffffffffffffffffffffffffffffffffffffff1602179055508173ffffffffffffffffffffffffffffffffffffffff168173ffffffffffffffffffffffffffffffffffffffff167f8be0079c531659141344cd1fd0a4f28419497f9722a3daafe3b4186f6b6457e060405160405180910390a35050565b5f73ffffffffffffffffffffffffffffffffffffffff168273ffffffffffffffffffffffffffffffffffffffff160361110957816040517f5b08ba180000000000000000000000000000000000000000000000000000000081526004016111009190611b4b565b60405180910390fd5b8060055f8573ffffffffffffffffffffffffffffffffffffffff1673ffffffffffffffffffffffffffffffffffffffff1681526020019081526020015f205f8473ffffffffffffffffffffffffffffffffffffffff1673ffffffffffffffffffffffffffffffffffffffff1681526020019081526020015f205f6101000a81548160ff0219169083151502179055508173ffffffffffffffffffffffffffffffffffffffff168373ffffffffffffffffffffffffffffffffffffffff167f17307eab39ab6107e8899845ad3d59bd9653f200f220920489ca2b5937696c31836040516111f59190611a05565b60405180910390a3505050565b5f8373ffffffffffffffffffffffffffffffffffffffff163b11156113a7578273ffffffffffffffffffffffffffffffffffffffff1663150b7a02868685856040518563ffffffff1660e01b81526004016112609493929190612076565b6020604051808303815f875af192505050801561129b57506040513d601f19601f8201168201806040525081019061129891906120d4565b60015b61131c573d805f81146112c9576040519150601f19603f3d011682016040523d82523d5f602084013e6112ce565b606091505b505f81510361131457836040517f64a0ae9200000000000000000000000000000000000000000000000000000000815260040161130b9190611b4b565b60405180910390fd5b805181602001fd5b63150b7a0260e01b7bffffffffffffffffffffffffffffffffffffffffffffffffffffffff1916817bffffffffffffffffffffffffffffffffffffffffffffffffffffffff1916146113a557836040517f64a0ae9200000000000000000000000000000000000000000000000000000000815260040161139c9190611b4b565b60405180910390fd5b505b5050505050565b606060405180602001604052805f815250905090565b60605f60016113d284611749565b0190505f8167ffffffffffffffff8111156113f0576113ef611cdf565b5b6040519080825280601f01601f1916602001820160405280156114225781602001600182028036833780820191505090505b5090505f82602001820190505b600115611483578080600190039150507f3031323334353637383961626364656600000000000000000000000000000000600a86061a8153600a8581611478576114776120ff565b5b0494505f850361142f575b819350505050919050565b5f60025f8381526020019081526020015f205f9054906101000a900473ffffffffffffffffffffffffffffffffffffffff169050919050565b80806114ff57505f73ffffffffffffffffffffffffffffffffffffffff168273ffffffffffffffffffffffffffffffffffffffff1614155b15611631575f61150e84610b79565b90505f73ffffffffffffffffffffffffffffffffffffffff168373ffffffffffffffffffffffffffffffffffffffff161415801561157857508273ffffffffffffffffffffffffffffffffffffffff168173ffffffffffffffffffffffffffffffffffffffff1614155b801561158b575061158981846109fe565b155b156115cd57826040517fa9fbf51f0000000000000000000000000000000000000000000000000000000081526004016115c49190611b4b565b60405180910390fd5b811561162f57838573ffffffffffffffffffffffffffffffffffffffff168273ffffffffffffffffffffffffffffffffffffffff167f8c5be1e5ebec7d5bd14f71427d1e84f3dd0314c0f7b2291e5b200ac8c7c3b92560405160405180910390a45b505b8360045f8581526020019081526020015f205f6101000a81548173ffffffffffffffffffffffffffffffffffffffff021916908373ffffffffffffffffffffffffffffffffffffffff16021790555050505050565b61169183838361189a565b611744575f73ffffffffffffffffffffffffffffffffffffffff168373ffffffffffffffffffffffffffffffffffffffff160361170557806040517f7e2732890000000000000000000000000000000000000000000000000000000081526004016116fc9190611c56565b60405180910390fd5b81816040517f177e802f00000000000000000000000000000000000000000000000000000000815260040161173b92919061212c565b60405180910390fd5b505050565b5f5f5f90507a184f03e93ff9f4daa797ed6e38ed64bf6a1f01000000000000000083106117a5577a184f03e93ff9f4daa797ed6e38ed64bf6a1f010000000000000000838161179b5761179a6120ff565b5b0492506040810190505b6d04ee2d6d415b85acef810000000083106117e2576d04ee2d6d415b85acef810000000083816117d8576117d76120ff565b5b0492506020810190505b662386f26fc10000831061181157662386f26fc100008381611807576118066120ff565b5b0492506010810190505b6305f5e100831061183a576305f5e10083816118305761182f6120ff565b5b0492506008810190505b612710831061185f576127108381611855576118546120ff565b5b0492506004810190505b606483106118825760648381611878576118776120ff565b5b0492506002810190505b600a8310611891576001810190505b80915050919050565b5f5f73ffffffffffffffffffffffffffffffffffffffff168373ffffffffffffffffffffffffffffffffffffffff161415801561195157508273ffffffffffffffffffffffffffffffffffffffff168473ffffffffffffffffffffffffffffffffffffffff161480611912575061191184846109fe565b5b8061195057508273ffffffffffffffffffffffffffffffffffffffff1661193883610bff565b73ffffffffffffffffffffffffffffffffffffffff16145b5b90509392505050565b5f604051905090565b5f5ffd5b5f5ffd5b5f7fffffffff0000000000000000000000000000000000000000000000000000000082169050919050565b61199f8161196b565b81146119a9575f5ffd5b50565b5f813590506119ba81611996565b92915050565b5f602082840312156119d5576119d4611963565b5b5f6119e2848285016119ac565b91505092915050565b5f8115159050919050565b6119ff816119eb565b82525050565b5f602082019050611a185f8301846119f6565b92915050565b5f81519050919050565b5f82825260208201905092915050565b8281835e5f83830152505050565b5f601f19601f8301169050919050565b5f611a6082611a1e565b611a6a8185611a28565b9350611a7a818560208601611a38565b611a8381611a46565b840191505092915050565b5f6020820190508181035f830152611aa68184611a56565b905092915050565b5f819050919050565b611ac081611aae565b8114611aca575f5ffd5b50565b5f81359050611adb81611ab7565b92915050565b5f60208284031215611af657611af5611963565b5b5f611b0384828501611acd565b91505092915050565b5f73ffffffffffffffffffffffffffffffffffffffff82169050919050565b5f611b3582611b0c565b9050919050565b611b4581611b2b565b82525050565b5f602082019050611b5e5f830184611b3c565b92915050565b611b6d81611b2b565b8114611b77575f5ffd5b50565b5f81359050611b8881611b64565b92915050565b5f5f60408385031215611ba457611ba3611963565b5b5f611bb185828601611b7a565b9250506020611bc285828601611acd565b9150509250929050565b5f5f5f60608486031215611be357611be2611963565b5b5f611bf086828701611b7a565b9350506020611c0186828701611b7a565b9250506040611c1286828701611acd565b9150509250925092565b5f60208284031215611c3157611c30611963565b5b5f611c3e84828501611b7a565b91505092915050565b611c5081611aae565b82525050565b5f602082019050611c695f830184611c47565b92915050565b611c78816119eb565b8114611c82575f5ffd5b50565b5f81359050611c9381611c6f565b92915050565b5f5f60408385031215611caf57611cae611963565b5b5f611cbc85828601611b7a565b9250506020611ccd85828601611c85565b9150509250929050565b5f5ffd5b5f5ffd5b7f4e487b71000000000000000000000000000000000000000000000000000000005f52604160045260245ffd5b611d1582611a46565b810181811067ffffffffffffffff82111715611d3457611d33611cdf565b5b80604052505050565b5f611d4661195a565b9050611d528282611d0c565b919050565b5f67ffffffffffffffff821115611d7157611d70611cdf565b5b611d7a82611a46565b9050602081019050919050565b828183375f83830152505050565b5f611da7611da284611d57565b611d3d565b905082815260208101848484011115611dc357611dc2611cdb565b5b611dce848285611d87565b509392505050565b5f82601f830112611dea57611de9611cd7565b5b8135611dfa848260208601611d95565b91505092915050565b5f5f5f5f60808587031215611e1b57611e1a611963565b5b5f611e2887828801611b7a565b9450506020611e3987828801611b7a565b9350506040611e4a87828801611acd565b925050606085013567ffffffffffffffff811115611e6b57611e6a611967565b5b611e7787828801611dd6565b91505092959194509250565b5f5f60408385031215611e9957611e98611963565b5b5f611ea685828601611b7a565b9250506020611eb785828601611b7a565b9150509250929050565b7f4e487b71000000000000000000000000000000000000000000000000000000005f52602260045260245ffd5b5f6002820490506001821680611f0557607f821691505b602082108103611f1857611f17611ec1565b5b50919050565b5f606082019050611f315f830186611b3c565b611f3e6020830185611c47565b611f4b6040830184611b3c565b949350505050565b7f4e487b71000000000000000000000000000000000000000000000000000000005f52601160045260245ffd5b5f611f8a82611aae565b91507fffffffffffffffffffffffffffffffffffffffffffffffffffffffffffffffff8203611fbc57611fbb611f53565b5b600182019050919050565b5f81905092915050565b5f611fdb82611a1e565b611fe58185611fc7565b9350611ff5818560208601611a38565b80840191505092915050565b5f61200c8285611fd1565b91506120188284611fd1565b91508190509392505050565b5f81519050919050565b5f82825260208201905092915050565b5f61204882612024565b612052818561202e565b9350612062818560208601611a38565b61206b81611a46565b840191505092915050565b5f6080820190506120895f830187611b3c565b6120966020830186611b3c565b6120a36040830185611c47565b81810360608301526120b5818461203e565b905095945050505050565b5f815190506120ce81611996565b92915050565b5f602082840312156120e9576120e8611963565b5b5f6120f6848285016120c0565b91505092915050565b7f4e487b71000000000000000000000000000000000000000000000000000000005f52601260045260245ffd5b5f60408201905061213f5f830185611b3c565b61214c6020830184611c47565b939250505056fea26469706673582212202a9bc2aadbda82d044af74b7e4db0c7c718b5f577f81e69b0983f3f47910816764736f6c634300081c0033","linkReferences":{}},"methodIdentifiers":{"approve(address,uint256)":"095ea7b3","balanceOf(address)":"70a08231","getApproved(uint256)":"081812fc","isApprovedForAll(address,address)":"e985e9c5","mintTo(address,uint256)":"449a52f8","name()":"06fdde03","nextTokenId()":"75794a3c","owner()":"8da5cb5b","ownerOf(uint256)":"6352211e","renounceOwnership()":"715018a6","safeTransferFrom(address,address,uint256)":"42842e0e","safeTransferFrom(address,address,uint256,bytes)":"b88d4fde","setApprovalForAll(address,bool)":"a22cb465","setShop(address)":"ce965f6a","shop()":"0881fa0d","supportsInterface(bytes4)":"01ffc9a7","symbol()":"95d89b41","tokenURI(uint256)":"c87b56dd","transferFrom(address,address,uint256)":"23b872dd","transferOwnership(address)":"f2fde38b"},"id":37}