{"abi":[{"type":"constructor","inputs":[{"name":"newEUR","type":"address","internalType":"contract EUR"},{"name":"newGrendyCard","type":"address","internalType":"contract GrendyCard"}],"stateMutability":"nonpayable"},{"type":"function","name":"eur","inputs":[],"outputs":[{"name":"","type":"address","internalType":"contract EUR"}],"stateMutability":"view"},{"type":"function","name":"getTotalPrice","inputs":[{"name":"quantity","type":"uint256","internalType":"uint256"}],"outputs":[{"name":"","type":"uint256","internalType":"uint256"}],"stateMutability":"view"},{"type":"function","name":"grendyCard","inputs":[],"outputs":[{"name":"","type":"address","internalType":"contract GrendyCard"}],"stateMutability":"view"},{"type":"function","name":"owner","inputs":[],"outputs":[{"name":"","type":"address","internalType":"address"}],"stateMutability":"view"},{"type":"function","name":"price","inputs":[],"outputs":[{"name":"","type":"uint256","internalType":"uint256"}],"stateMutability":"view"},{"type":"function","name":"purchase","inputs":[{"name":"quantity","type":"uint256","internalType":"uint256"}],"outputs":[],"stateMutability":"nonpayable"},{"type":"function","name":"renounceOwnership","inputs":[],"outputs":[],"stateMutability":"nonpayable"},{"type":"function","name":"transferOwnership","inputs":[{"name":"newOwner","type":"address","internalType":"address"}],"outputs":[],"stateMutability":"nonpayable"},{"type":"event","name":"OwnershipTransferred","inputs":[{"name":"previousOwner","type":"address","indexed":true,"internalType":"address"},{"name":"newOwner","type":"address","indexed":true,"internalType":"address"}],"anonymous":false},{"type":"error","name":"OwnableInvalidOwner","inputs":[{"name":"owner","type":"address","internalType":"address"}]},{"type":"error","name":"OwnableUnauthorizedAccount","inputs":[{"name":"account","type":"address","internalType":"address"}]}],"bytecode":{"object":"0x60a060405234801561000f575f5ffd5b50604051610ecd380380610ecd83398181016040528101906100319190610351565b335f73ffffffffffffffffffffffffffffffffffffffff168173ffffffffffffffffffffffffffffffffffffffff16036100a2575f6040517f1e4fbdf7000000000000000000000000000000000000000000000000000000008152600401610099919061039e565b60405180910390fd5b6100b1816101e660201b60201c565b508160015f6101000a81548173ffffffffffffffffffffffffffffffffffffffff021916908373ffffffffffffffffffffffffffffffffffffffff1602179055508060025f6101000a81548173ffffffffffffffffffffffffffffffffffffffff021916908373ffffffffffffffffffffffffffffffffffffffff16021790555060015f9054906101000a900473ffffffffffffffffffffffffffffffffffffffff1673ffffffffffffffffffffffffffffffffffffffff1663313ce5676040518163ffffffff1660e01b8152600401602060405180830381865afa15801561019c573d5f5f3e3d5ffd5b505050506040513d601f19601f820116820180604052508101906101c091906103ed565b600a6101cc919061057d565b600a6101d891906105c7565b608081815250505050610608565b5f5f5f9054906101000a900473ffffffffffffffffffffffffffffffffffffffff169050815f5f6101000a81548173ffffffffffffffffffffffffffffffffffffffff021916908373ffffffffffffffffffffffffffffffffffffffff1602179055508173ffffffffffffffffffffffffffffffffffffffff168173ffffffffffffffffffffffffffffffffffffffff167f8be0079c531659141344cd1fd0a4f28419497f9722a3daafe3b4186f6b6457e060405160405180910390a35050565b5f5ffd5b5f73ffffffffffffffffffffffffffffffffffffffff82169050919050565b5f6102d4826102ab565b9050919050565b5f6102e5826102ca565b9050919050565b6102f5816102db565b81146102ff575f5ffd5b50565b5f81519050610310816102ec565b92915050565b5f610320826102ca565b9050919050565b61033081610316565b811461033a575f5ffd5b50565b5f8151905061034b81610327565b92915050565b5f5f60408385031215610367576103666102a7565b5b5f61037485828601610302565b92505060206103858582860161033d565b9150509250929050565b610398816102ca565b82525050565b5f6020820190506103b15f83018461038f565b92915050565b5f60ff82169050919050565b6103cc816103b7565b81146103d6575f5ffd5b50565b5f815190506103e7816103c3565b92915050565b5f60208284031215610402576104016102a7565b5b5f61040f848285016103d9565b91505092915050565b7f4e487b71000000000000000000000000000000000000000000000000000000005f52601160045260245ffd5b5f8160011c9050919050565b5f5f8291508390505b600185111561049a5780860481111561047657610475610418565b5b60018516156104855780820291505b808102905061049385610445565b945061045a565b94509492505050565b5f826104b2576001905061056d565b816104bf575f905061056d565b81600181146104d557600281146104df5761050e565b600191505061056d565b60ff8411156104f1576104f0610418565b5b8360020a91508482111561050857610507610418565b5b5061056d565b5060208310610133831016604e8410600b84101617156105435782820a90508381111561053e5761053d610418565b5b61056d565b6105508484846001610451565b9250905081840481111561056757610566610418565b5b81810290505b9392505050565b5f819050919050565b5f61058782610574565b9150610592836103b7565b92506105bf7fffffffffffffffffffffffffffffffffffffffffffffffffffffffffffffffff84846104a3565b905092915050565b5f6105d182610574565b91506105dc83610574565b92508282026105ea81610574565b9150828204841483151761060157610600610418565b5b5092915050565b6080516108a66106275f395f81816101fa015261022101526108a65ff3fe608060405234801561000f575f5ffd5b5060043610610086575f3560e01c8063a035b1fe11610059578063a035b1fe146100ee578063ca7dd3751461010c578063efef39a11461013c578063f2fde38b1461015857610086565b806350a1f17c1461008a578063715018a6146100a85780637439ae59146100b25780638da5cb5b146100d0575b5f5ffd5b610092610174565b60405161009f91906105dc565b60405180910390f35b6100b0610199565b005b6100ba6101ac565b6040516100c79190610615565b60405180910390f35b6100d86101d1565b6040516100e5919061064e565b60405180910390f35b6100f66101f8565b604051610103919061067f565b60405180910390f35b610126600480360381019061012191906106c6565b61021c565b604051610133919061067f565b60405180910390f35b610156600480360381019061015191906106c6565b610255565b005b610172600480360381019061016d919061071b565b61038f565b005b60025f9054906101000a900473ffffffffffffffffffffffffffffffffffffffff1681565b6101a1610413565b6101aa5f61049a565b565b60015f9054906101000a900473ffffffffffffffffffffffffffffffffffffffff1681565b5f5f5f9054906101000a900473ffffffffffffffffffffffffffffffffffffffff16905090565b7f000000000000000000000000000000000000000000000000000000000000000081565b5f5f827f000000000000000000000000000000000000000000000000000000000000000061024a9190610773565b905080915050919050565b60015f9054906101000a900473ffffffffffffffffffffffffffffffffffffffff1673ffffffffffffffffffffffffffffffffffffffff166323b872dd3361029b6101d1565b6102a48561021c565b6040518463ffffffff1660e01b81526004016102c2939291906107b4565b6020604051808303815f875af11580156102de573d5f5f3e3d5ffd5b505050506040513d601f19601f82011682018060405250810190610302919061081e565b5060025f9054906101000a900473ffffffffffffffffffffffffffffffffffffffff1673ffffffffffffffffffffffffffffffffffffffff1663449a52f833836040518363ffffffff1660e01b815260040161035f929190610849565b5f604051808303815f87803b158015610376575f5ffd5b505af1158015610388573d5f5f3e3d5ffd5b5050505050565b610397610413565b5f73ffffffffffffffffffffffffffffffffffffffff168173ffffffffffffffffffffffffffffffffffffffff1603610407575f6040517f1e4fbdf70000000000000000000000000000000000000000000000000000000081526004016103fe919061064e565b60405180910390fd5b6104108161049a565b50565b61041b61055b565b73ffffffffffffffffffffffffffffffffffffffff166104396101d1565b73ffffffffffffffffffffffffffffffffffffffff16146104985761045c61055b565b6040517f118cdaa700000000000000000000000000000000000000000000000000000000815260040161048f919061064e565b60405180910390fd5b565b5f5f5f9054906101000a900473ffffffffffffffffffffffffffffffffffffffff169050815f5f6101000a81548173ffffffffffffffffffffffffffffffffffffffff021916908373ffffffffffffffffffffffffffffffffffffffff1602179055508173ffffffffffffffffffffffffffffffffffffffff168173ffffffffffffffffffffffffffffffffffffffff167f8be0079c531659141344cd1fd0a4f28419497f9722a3daafe3b4186f6b6457e060405160405180910390a35050565b5f33905090565b5f73ffffffffffffffffffffffffffffffffffffffff82169050919050565b5f819050919050565b5f6105a461059f61059a84610562565b610581565b610562565b9050919050565b5f6105b58261058a565b9050919050565b5f6105c6826105ab565b9050919050565b6105d6816105bc565b82525050565b5f6020820190506105ef5f8301846105cd565b92915050565b5f6105ff826105ab565b9050919050565b61060f816105f5565b82525050565b5f6020820190506106285f830184610606565b92915050565b5f61063882610562565b9050919050565b6106488161062e565b82525050565b5f6020820190506106615f83018461063f565b92915050565b5f819050919050565b61067981610667565b82525050565b5f6020820190506106925f830184610670565b92915050565b5f5ffd5b6106a581610667565b81146106af575f5ffd5b50565b5f813590506106c08161069c565b92915050565b5f602082840312156106db576106da610698565b5b5f6106e8848285016106b2565b91505092915050565b6106fa8161062e565b8114610704575f5ffd5b50565b5f81359050610715816106f1565b92915050565b5f602082840312156107305761072f610698565b5b5f61073d84828501610707565b91505092915050565b7f4e487b71000000000000000000000000000000000000000000000000000000005f52601160045260245ffd5b5f61077d82610667565b915061078883610667565b925082820261079681610667565b915082820484148315176107ad576107ac610746565b5b5092915050565b5f6060820190506107c75f83018661063f565b6107d4602083018561063f565b6107e16040830184610670565b949350505050565b5f8115159050919050565b6107fd816107e9565b8114610807575f5ffd5b50565b5f81519050610818816107f4565b92915050565b5f6020828403121561083357610832610698565b5b5f6108408482850161080a565b91505092915050565b5f60408201905061085c5f83018561063f565b6108696020830184610670565b939250505056fea2646970667358221220f08d071c42b9b577cd8783b9203f195bccc90f1c706fad0ca9908cf1ac6992cb64736f6c634300081c0033","linkReferences":{}},"methodIdentifiers":{"eur()":"7439ae59","getTotalPrice(uint256)":"ca7dd375","grendyCard()":"50a1f17c","owner()":"8da5cb5b","price()":"a035b1fe","purchase(uint256)":"efef39a1","renounceOwnership()":"715018a6","transferOwnership(address)":"f2fde38b"},"id":38}